{
  "address": "0xCf7Ed3AccA5a467e9e704C703E8D87F634fB0Fc9",
  "abi": [
    {
      "inputs": [
        {
          "internalType": "address",
          "name": "vrfCoordinator_",
          "type": "address"
        },
        {
          "internalType": "uint64",
          "name": "subscriptionId_",
          "type": "uint64"
        },
        {
          "internalType": "bytes32",
          "name": "gasLane_",
          "type": "bytes32"
        },
        {
          "internalType": "uint256",
          "name": "interval_",
          "type": "uint256"
        },
        {
          "internalType": "uint256",
          "name": "entranceFee_",
          "type": "uint256"
        },
        {
          "internalType": "uint32",
          "name": "callbackGasLimit_",
          "type": "uint32"
        }
      ],
      "stateMutability": "nonpayable",
      "type": "constructor"
    },
    {
      "inputs": [
        {
          "internalType": "address",
          "name": "have",
          "type": "address"
        },
        {
          "internalType": "address",
          "name": "want",
          "type": "address"
        }
      ],
      "name": "OnlyCoordinatorCanFulfill",
      "type": "error"
    },
    {
      "inputs": [],
      "name": "Raffle__NotEnoughETHEntered",
      "type": "error"
    },
    {
      "inputs": [],
      "name": "Raffle__RaffleNotOpen",
      "type": "error"
    },
    {
      "inputs": [],
      "name": "Raffle__TransferFailed",
      "type": "error"
    },
    {
      "inputs": [
        {
          "internalType": "uint256",
          "name": "balance",
          "type": "uint256"
        },
        {
          "internalType": "uint256",
          "name": "numPlayers",
          "type": "uint256"
        },
        {
          "internalType": "uint256",
          "name": "raffleState",
          "type": "uint256"
        }
      ],
      "name": "Raffle__UpkeepNotNeeded",
      "type": "error"
    },
    {
      "anonymous": false,
      "inputs": [
        {
          "indexed": true,
          "internalType": "address",
          "name": "player",
          "type": "address"
        }
      ],
      "name": "RaffleEnter",
      "type": "event"
    },
    {
      "anonymous": false,
      "inputs": [
        {
          "indexed": true,
          "internalType": "uint256",
          "name": "player",
          "type": "uint256"
        }
      ],
      "name": "RequestRaffleWinner",
      "type": "event"
    },
    {
      "anonymous": false,
      "inputs": [
        {
          "indexed": true,
          "internalType": "address",
          "name": "player",
          "type": "address"
        }
      ],
      "name": "WinnerPicked",
      "type": "event"
    },
    {
      "inputs": [
        {
          "internalType": "bytes",
          "name": "",
          "type": "bytes"
        }
      ],
      "name": "checkUpkeep",
      "outputs": [
        {
          "internalType": "bool",
          "name": "upkeepNeeded",
          "type": "bool"
        },
        {
          "internalType": "bytes",
          "name": "",
          "type": "bytes"
        }
      ],
      "stateMutability": "nonpayable",
      "type": "function"
    },
    {
      "inputs": [],
      "name": "enterRaffle",
      "outputs": [],
      "stateMutability": "payable",
      "type": "function"
    },
    {
      "inputs": [],
      "name": "getEntranceFee",
      "outputs": [
        {
          "internalType": "uint256",
          "name": "",
          "type": "uint256"
        }
      ],
      "stateMutability": "view",
      "type": "function"
    },
    {
      "inputs": [],
      "name": "getInterval",
      "outputs": [
        {
          "internalType": "uint256",
          "name": "",
          "type": "uint256"
        }
      ],
      "stateMutability": "view",
      "type": "function"
    },
    {
      "inputs": [],
      "name": "getLastTimestamp",
      "outputs": [
        {
          "internalType": "uint256",
          "name": "",
          "type": "uint256"
        }
      ],
      "stateMutability": "view",
      "type": "function"
    },
    {
      "inputs": [],
      "name": "getNumWords",
      "outputs": [
        {
          "internalType": "uint256",
          "name": "",
          "type": "uint256"
        }
      ],
      "stateMutability": "pure",
      "type": "function"
    },
    {
      "inputs": [],
      "name": "getNumberOfPlayers",
      "outputs": [
        {
          "internalType": "uint256",
          "name": "",
          "type": "uint256"
        }
      ],
      "stateMutability": "view",
      "type": "function"
    },
    {
      "inputs": [
        {
          "internalType": "uint256",
          "name": "index_",
          "type": "uint256"
        }
      ],
      "name": "getPlayer",
      "outputs": [
        {
          "internalType": "address",
          "name": "",
          "type": "address"
        }
      ],
      "stateMutability": "view",
      "type": "function"
    },
    {
      "inputs": [],
      "name": "getRaffleState",
      "outputs": [
        {
          "internalType": "enum Raffle.RaffleState",
          "name": "",
          "type": "uint8"
        }
      ],
      "stateMutability": "view",
      "type": "function"
    },
    {
      "inputs": [],
      "name": "getRecentWinner",
      "outputs": [
        {
          "internalType": "address payable",
          "name": "",
          "type": "address"
        }
      ],
      "stateMutability": "view",
      "type": "function"
    },
    {
      "inputs": [],
      "name": "getRequestConfirmations",
      "outputs": [
        {
          "internalType": "uint256",
          "name": "",
          "type": "uint256"
        }
      ],
      "stateMutability": "pure",
      "type": "function"
    },
    {
      "inputs": [
        {
          "internalType": "bytes",
          "name": "",
          "type": "bytes"
        }
      ],
      "name": "performUpkeep",
      "outputs": [],
      "stateMutability": "nonpayable",
      "type": "function"
    },
    {
      "inputs": [
        {
          "internalType": "uint256",
          "name": "requestId",
          "type": "uint256"
        },
        {
          "internalType": "uint256[]",
          "name": "randomWords",
          "type": "uint256[]"
        }
      ],
      "name": "rawFulfillRandomWords",
      "outputs": [],
      "stateMutability": "nonpayable",
      "type": "function"
    }
  ],
  "transactionHash": "0x49cfc1b058f927ec7ed3ce410061411066a050f436be0fcc60a41b0d558c3201",
  "args": [
    "0x5FbDB2315678afecb367f032d93F642f64180aa3",
    "1",
    "0x474e34a077df58807dbe9c96d3c009b23b3c6d0cce433e59bbf5b34f823bc56c",
    "30",
    "10000000000000000",
    "500000"
  ],
  "numDeployments": 1,
  "solcInputHash": "a4fe2dfd5def8858495aa2b62be40874",
  "bytecode": "0x6101406040523480156200001257600080fd5b5060405162001826380380620018268339818101604052810190620000389190620001ab565b858073ffffffffffffffffffffffffffffffffffffffff1660808173ffffffffffffffffffffffffffffffffffffffff1660601b81525050508160a081815250508573ffffffffffffffffffffffffffffffffffffffff166101208173ffffffffffffffffffffffffffffffffffffffff1660601b815250508360c081815250508467ffffffffffffffff1660e08167ffffffffffffffff1660c01b815250508063ffffffff166101008163ffffffff1660e01b815250506000600460006101000a81548160ff02191690836001811115620001195762000118620002b3565b5b0217905550426002819055508260038190555050505050505062000369565b6000815190506200014981620002e7565b92915050565b600081519050620001608162000301565b92915050565b60008151905062000177816200031b565b92915050565b6000815190506200018e8162000335565b92915050565b600081519050620001a5816200034f565b92915050565b60008060008060008060c08789031215620001cb57620001ca620002e2565b5b6000620001db89828a0162000138565b9650506020620001ee89828a0162000194565b95505060406200020189828a016200014f565b94505060606200021489828a0162000166565b93505060806200022789828a0162000166565b92505060a06200023a89828a016200017d565b9150509295509295509295565b6000620002548262000265565b9050919050565b6000819050919050565b600073ffffffffffffffffffffffffffffffffffffffff82169050919050565b6000819050919050565b600063ffffffff82169050919050565b600067ffffffffffffffff82169050919050565b7f4e487b7100000000000000000000000000000000000000000000000000000000600052602160045260246000fd5b600080fd5b620002f28162000247565b8114620002fe57600080fd5b50565b6200030c816200025b565b81146200031857600080fd5b50565b620003268162000285565b81146200033257600080fd5b50565b62000340816200028f565b81146200034c57600080fd5b50565b6200035a816200029f565b81146200036657600080fd5b50565b60805160601c60a05160c05160e05160c01c6101005160e01c6101205160601c611453620003d36000396000610626015260006106a601526000610683015260006106620152600081816102fa01526103f7015260008181610337015261038b01526114536000f3fe6080604052600436106100c25760003560e01c8063473f1ddc1161007f5780636e04ff0d116100595780636e04ff0d1461022557806391ad27b414610263578063e55ae4e81461028e578063fd6673f5146102cb576100c2565b8063473f1ddc146101a457806353a2c19a146101cf5780635f1b0fd8146101fa576100c2565b806309bc33a7146100c7578063115cbaf5146100f25780631fe543e31461011d5780632cfcc5391461014657806337899770146101505780634585e33b1461017b575b600080fd5b3480156100d357600080fd5b506100dc6102f6565b6040516100e99190611047565b60405180910390f35b3480156100fe57600080fd5b5061010761031e565b604051610114919061102c565b60405180910390f35b34801561012957600080fd5b50610144600480360381019061013f9190610df6565b610335565b005b61014e6103f5565b005b34801561015c57600080fd5b50610165610564565b6040516101729190611047565b60405180910390f35b34801561018757600080fd5b506101a2600480360381019061019d9190610d06565b61056e565b005b3480156101b057600080fd5b506101b961076e565b6040516101c69190610f65565b60405180910390f35b3480156101db57600080fd5b506101e4610798565b6040516101f19190611047565b60405180910390f35b34801561020657600080fd5b5061020f6107a7565b60405161021c9190611047565b60405180910390f35b34801561023157600080fd5b5061024c60048036038101906102479190610d53565b6107b4565b60405161025a929190610fa9565b60405180910390f35b34801561026f57600080fd5b50610278610843565b6040516102859190611047565b60405180910390f35b34801561029a57600080fd5b506102b560048036038101906102b09190610d9c565b61084d565b6040516102c29190610f4a565b60405180910390f35b3480156102d757600080fd5b506102e0610894565b6040516102ed9190611047565b60405180910390f35b60007f0000000000000000000000000000000000000000000000000000000000000000905090565b6000600460009054906101000a900460ff16905090565b7f000000000000000000000000000000000000000000000000000000000000000073ffffffffffffffffffffffffffffffffffffffff163373ffffffffffffffffffffffffffffffffffffffff16146103e757337f00000000000000000000000000000000000000000000000000000000000000006040517f1cf993f40000000000000000000000000000000000000000000000000000000081526004016103de929190610f80565b60405180910390fd5b6103f182826108a0565b5050565b7f000000000000000000000000000000000000000000000000000000000000000034101561044f576040517fbd4e069500000000000000000000000000000000000000000000000000000000815260040160405180910390fd5b6000600181111561046357610462611333565b5b600460009054906101000a900460ff16600181111561048557610484611333565b5b146104bc576040517fd24a271400000000000000000000000000000000000000000000000000000000815260040160405180910390fd5b6000339080600181540180825580915050600190039060005260206000200160009091909190916101000a81548173ffffffffffffffffffffffffffffffffffffffff021916908373ffffffffffffffffffffffffffffffffffffffff1602179055503373ffffffffffffffffffffffffffffffffffffffff167f0805e1d667bddb8a95f0f09880cf94f403fb596ce79928d9f29b74203ba284d460405160405180910390a2565b6000600254905090565b6000610588604051806020016040528060008152506107b4565b509050806105f75747600080549050600460009054906101000a900460ff1660018111156105b9576105b8611333565b5b6040517f584327aa0000000000000000000000000000000000000000000000000000000081526004016105ee93929190611062565b60405180910390fd5b6001600460006101000a81548160ff0219169083600181111561061d5761061c611333565b5b021790555060007f000000000000000000000000000000000000000000000000000000000000000073ffffffffffffffffffffffffffffffffffffffff16635d3b1d307f00000000000000000000000000000000000000000000000000000000000000007f000000000000000000000000000000000000000000000000000000000000000060037f000000000000000000000000000000000000000000000000000000000000000060016040518663ffffffff1660e01b81526004016106e7959493929190610fd9565b602060405180830381600087803b15801561070157600080fd5b505af1158015610715573d6000803e3d6000fd5b505050506040513d601f19601f820116820180604052508101906107399190610dc9565b9050807fde6349b018d6c03d837b67d9a198a6ba4842546f2295fe963fae141e5dbaef8160405160405180910390a250505050565b6000600160009054906101000a900473ffffffffffffffffffffffffffffffffffffffff16905090565b6000600163ffffffff16905090565b6000600361ffff16905090565b600060606000600460009054906101000a900460ff1660018111156107dc576107db611333565b5b600060018111156107f0576107ef611333565b5b1490506000600354600254426108069190611142565b119050600080600080549050119050600080471190508380156108265750825b801561082f5750815b80156108385750805b955050505050915091565b6000600354905090565b600080828154811061086257610861611362565b5b9060005260206000200160009054906101000a900473ffffffffffffffffffffffffffffffffffffffff169050919050565b60008080549050905090565b60008080549050826000815181106108bb576108ba611362565b5b60200260200101516108cd91906112a4565b905060008082815481106108e4576108e3611362565b5b9060005260206000200160009054906101000a900473ffffffffffffffffffffffffffffffffffffffff16905080600160006101000a81548173ffffffffffffffffffffffffffffffffffffffff021916908373ffffffffffffffffffffffffffffffffffffffff1602179055506000600460006101000a81548160ff0219169083600181111561097857610977611333565b5b0217905550600067ffffffffffffffff81111561099857610997611391565b5b6040519080825280602002602001820160405280156109c65781602001602082028036833780820191505090505b50600090805190602001906109dc929190610ad1565b504260028190555060008173ffffffffffffffffffffffffffffffffffffffff1647604051610a0a90610f35565b60006040518083038185875af1925050503d8060008114610a47576040519150601f19603f3d011682016040523d82523d6000602084013e610a4c565b606091505b5050905080610a87576040517fa1d04b3900000000000000000000000000000000000000000000000000000000815260040160405180910390fd5b8173ffffffffffffffffffffffffffffffffffffffff167f5b690ec4a06fe979403046eaeea5b3ce38524683c3001f662c8b5a829632f7df60405160405180910390a25050505050565b828054828255906000526020600020908101928215610b4a579160200282015b82811115610b495782518260006101000a81548173ffffffffffffffffffffffffffffffffffffffff021916908373ffffffffffffffffffffffffffffffffffffffff16021790555091602001919060010190610af1565b5b509050610b579190610b5b565b5090565b5b80821115610b74576000816000905550600101610b5c565b5090565b6000610b8b610b86846110be565b611099565b90508083825260208201905082856020860282011115610bae57610bad6113ca565b5b60005b85811015610bde5781610bc48882610cdc565b845260208401935060208301925050600181019050610bb1565b5050509392505050565b6000610bfb610bf6846110ea565b611099565b905082815260208101848484011115610c1757610c166113cf565b5b610c22848285611231565b509392505050565b600082601f830112610c3f57610c3e6113c5565b5b8135610c4f848260208601610b78565b91505092915050565b60008083601f840112610c6e57610c6d6113c5565b5b8235905067ffffffffffffffff811115610c8b57610c8a6113c0565b5b602083019150836001820283011115610ca757610ca66113ca565b5b9250929050565b600082601f830112610cc357610cc26113c5565b5b8135610cd3848260208601610be8565b91505092915050565b600081359050610ceb81611406565b92915050565b600081519050610d0081611406565b92915050565b60008060208385031215610d1d57610d1c6113d9565b5b600083013567ffffffffffffffff811115610d3b57610d3a6113d4565b5b610d4785828601610c58565b92509250509250929050565b600060208284031215610d6957610d686113d9565b5b600082013567ffffffffffffffff811115610d8757610d866113d4565b5b610d9384828501610cae565b91505092915050565b600060208284031215610db257610db16113d9565b5b6000610dc084828501610cdc565b91505092915050565b600060208284031215610ddf57610dde6113d9565b5b6000610ded84828501610cf1565b91505092915050565b60008060408385031215610e0d57610e0c6113d9565b5b6000610e1b85828601610cdc565b925050602083013567ffffffffffffffff811115610e3c57610e3b6113d4565b5b610e4885828601610c2a565b9150509250929050565b610e5b81611188565b82525050565b610e6a81611176565b82525050565b610e798161119a565b82525050565b610e88816111a6565b82525050565b6000610e998261111b565b610ea38185611126565b9350610eb3818560208601611240565b610ebc816113de565b840191505092915050565b610ed08161121f565b82525050565b6000610ee3600083611137565b9150610eee826113ef565b600082019050919050565b610f02816111c3565b82525050565b610f11816111f1565b82525050565b610f20816111fb565b82525050565b610f2f8161120b565b82525050565b6000610f4082610ed6565b9150819050919050565b6000602082019050610f5f6000830184610e61565b92915050565b6000602082019050610f7a6000830184610e52565b92915050565b6000604082019050610f956000830185610e61565b610fa26020830184610e61565b9392505050565b6000604082019050610fbe6000830185610e70565b8181036020830152610fd08184610e8e565b90509392505050565b600060a082019050610fee6000830188610e7f565b610ffb6020830187610f26565b6110086040830186610ef9565b6110156060830185610f17565b6110226080830184610f17565b9695505050505050565b60006020820190506110416000830184610ec7565b92915050565b600060208201905061105c6000830184610f08565b92915050565b60006060820190506110776000830186610f08565b6110846020830185610f08565b6110916040830184610f08565b949350505050565b60006110a36110b4565b90506110af8282611273565b919050565b6000604051905090565b600067ffffffffffffffff8211156110d9576110d8611391565b5b602082029050602081019050919050565b600067ffffffffffffffff82111561110557611104611391565b5b61110e826113de565b9050602081019050919050565b600081519050919050565b600082825260208201905092915050565b600081905092915050565b600061114d826111f1565b9150611158836111f1565b92508282101561116b5761116a6112d5565b5b828203905092915050565b6000611181826111d1565b9050919050565b6000611193826111d1565b9050919050565b60008115159050919050565b6000819050919050565b60008190506111be826113f2565b919050565b600061ffff82169050919050565b600073ffffffffffffffffffffffffffffffffffffffff82169050919050565b6000819050919050565b600063ffffffff82169050919050565b600067ffffffffffffffff82169050919050565b600061122a826111b0565b9050919050565b82818337600083830152505050565b60005b8381101561125e578082015181840152602081019050611243565b8381111561126d576000848401525b50505050565b61127c826113de565b810181811067ffffffffffffffff8211171561129b5761129a611391565b5b80604052505050565b60006112af826111f1565b91506112ba836111f1565b9250826112ca576112c9611304565b5b828206905092915050565b7f4e487b7100000000000000000000000000000000000000000000000000000000600052601160045260246000fd5b7f4e487b7100000000000000000000000000000000000000000000000000000000600052601260045260246000fd5b7f4e487b7100000000000000000000000000000000000000000000000000000000600052602160045260246000fd5b7f4e487b7100000000000000000000000000000000000000000000000000000000600052603260045260246000fd5b7f4e487b7100000000000000000000000000000000000000000000000000000000600052604160045260246000fd5b600080fd5b600080fd5b600080fd5b600080fd5b600080fd5b600080fd5b6000601f19601f8301169050919050565b50565b6002811061140357611402611333565b5b50565b61140f816111f1565b811461141a57600080fd5b5056fea2646970667358221220a7e7184c52d36271168c9659cd07c438e8de471496c1a0c285282ba87b66ac7d64736f6c63430008060033",
  "devdoc": {
    "author": "dsme1995",
    "details": "This implements the Chainlink VRF Version 2",
    "kind": "dev",
    "methods": {},
    "title": "A sample Raffle Contract",
    "version": 1
  },
  "userdoc": {
    "kind": "user",
    "methods": {},
    "notice": "This contract is for creating a sample raffle contract",
    "version": 1
  },
  "storageLayout": {
    "storage": [
      {
        "astId": 10009,
        "contract": "contracts/Raffle.sol:Raffle",
        "label": "s_players",
        "offset": 0,
        "slot": "0",
        "type": "t_array(t_address_payable)dyn_storage"
      },
      {
        "astId": 10023,
        "contract": "contracts/Raffle.sol:Raffle",
        "label": "s_recent_winner",
        "offset": 0,
        "slot": "1",
        "type": "t_address_payable"
      },
      {
        "astId": 10025,
        "contract": "contracts/Raffle.sol:Raffle",
        "label": "s_lastTimestamp",
        "offset": 0,
        "slot": "2",
        "type": "t_uint256"
      },
      {
        "astId": 10027,
        "contract": "contracts/Raffle.sol:Raffle",
        "label": "i_interval",
        "offset": 0,
        "slot": "3",
        "type": "t_uint256"
      },
      {
        "astId": 10030,
        "contract": "contracts/Raffle.sol:Raffle",
        "label": "s_raffleState",
        "offset": 0,
        "slot": "4",
        "type": "t_enum(RaffleState)10004"
      }
    ],
    "types": {
      "t_address_payable": {
        "encoding": "inplace",
        "label": "address payable",
        "numberOfBytes": "20"
      },
      "t_array(t_address_payable)dyn_storage": {
        "base": "t_address_payable",
        "encoding": "dynamic_array",
        "label": "address payable[]",
        "numberOfBytes": "32"
      },
      "t_enum(RaffleState)10004": {
        "encoding": "inplace",
        "label": "enum Raffle.RaffleState",
        "numberOfBytes": "1"
      },
      "t_uint256": {
        "encoding": "inplace",
        "label": "uint256",
        "numberOfBytes": "32"
      }
    }
  }
}